:100000000C9462000C948A000C948A000C948A0070
:100010000C948A000C948A000C948A000C948A0038
:100020000C948A000C948A000C948A000C948A0028
:100030000C948A000C948A000C948A000C948A0018
:100040000C940F030C948A000C94DD020C94B702FC
:100050000C948A000C948A000C948A000C948A00F8
:100060000C948A000C948A000000000024002700F1
:100070002A000000000023002600290000000000E4
:10008000250028002B0004040404040404040202D4
:100090000202020203030303030301020408102007
:1000A0004080010204081020010204081020000012
:1000B0000008000201000003040700000000000027
:1000C0000000260511241FBECFEFD8E0DEBFCDBF54
:1000D00011E0A0E0B1E0EEE8FEE002C005900D9274
:1000E000A039B107D9F722E0A0E9B1E001C01D9223
:1000F000A633B207E1F710E0C2E6D0E004C02197D2
:10010000FE010E943F07C136D107C9F70E9459037B
:100110000C9445070C94000081E480937C0080914E
:100120007A00806480937A0080917A0086FDFCCF0B
:1001300080917800909179000895AF92BF92CF920C
:10014000DF92EF92FF920F931F93CF93DF936C0197
:100150007B018B01040F151FEB015E01AE18BF0878
:10016000C017D10759F06991D601ED91FC9101902A
:10017000F081E02DC6010995892B79F7C501DF9142
:10018000CF911F910F91FF90EF90DF90CF90BF9094
:10019000AF900895FC01538D448D252F30E0842FBE
:1001A00090E0821B930B541710F0CF96089501979F
:1001B0000895FC01918D828D981761F0A28DAE0F8C
:1001C000BF2FB11D5D968C91928D9F5F9F73928F13
:1001D00090E008958FEF9FEF0895FC01918D828D3F
:1001E000981731F0828DE80FF11D858D90E008950C
:1001F0008FEF9FEF0895FC01918D228D892F90E064
:10020000805C9F4F821B91098F739927089589E91C
:1002100091E00E94FB0021E0892B09F420E0822F6D
:10022000089580E090E0892B29F00E940701811158
:100230000C9400000895FC01A48DA80FB92FB11DE6
:10024000A35ABF4F2C91848D90E001968F7399270C
:10025000848FA689B7892C93A089B1898C918370EA
:1002600080648C93938D848D981306C00288F389E3
:10027000E02D80818F7D80830895EF92FF920F9310
:100280001F93CF93DF93EC0181E0888F9B8D8C8D42
:1002900098131AC0E889F989808185FF15C09FB736
:1002A000F894EE89FF896083E889F98980818370F9
:1002B000806480839FBF81E090E0DF91CF911F91A8
:1002C0000F91FF90EF900895F62E0B8D10E00F5FC9
:1002D0001F4F0F731127E02E8C8D8E110CC00FB69F
:1002E00007FCFACFE889F989808185FFF5CFCE0137
:1002F0000E941B01F1CFEB8DEC0FFD2FF11DE35A96
:10030000FF4FF0829FB7F8940B8FEA89FB898081B9
:100310008062CFCFCF93DF93EC01888D8823B9F033
:10032000AA89BB89E889F9898C9185FD03C0808100
:1003300086FD0DC00FB607FCF7CF8C9185FFF2CF7D
:10034000808185FFEDCFCE010E941B01E9CFDF91B7
:10035000CF910895833081F028F4813099F0823074
:10036000A9F008958730A9F08830C9F08430B1F43D
:10037000809180008F7D03C0809180008F77809373
:100380008000089584B58F7784BD089584B58F7DEE
:10039000FBCF8091B0008F778093B000089580915B
:1003A000B0008F7DF9CF1F93CF93DF93ECEBF0E09C
:1003B0009491E8EAF0E0D491E4E9F0E0C491CC2330
:1003C000B9F0182F992319F0892F0E94AA01EC2F58
:1003D000F0E0EE0FFF1FE458FF4FA591B4918FB7E7
:1003E000F894EC91111108C0D095DE23DC938FBFF7
:1003F000DF91CF911F910895DE2BF8CF3FB7F8948E
:100400008091950190919601A0919701B0919801EA
:1004100026B5A89B05C02F3F19F00196A11DB11D5F
:100420003FBFBA2FA92F982F8827BC01CD01620F9B
:10043000711D811D911D42E0660F771F881F991F56
:100440004A95D1F708958F929F92AF92BF92CF9223
:10045000DF92EF92FF920E94FE014B015C0188EC5B
:10046000C82ED12CE12CF12C0E94FE0168197909CB
:100470008A099B09683E734081059105A8F321E034
:10048000C21AD108E108F10888EE880E83E0981EB0
:10049000A11CB11CC114D104E104F10429F7FF909F
:1004A000EF90DF90CF90BF90AF909F908F90089586
:1004B000FC0101900020E9F73197AF01481B590B6F
:1004C000BC0189E991E00C949D008F929F92AF92BC
:1004D000BF920F931F93CF93DF93CDB7DEB7A19752
:1004E0000FB6F894DEBF0FBECDBF19A2423008F49C
:1004F0004AE08E010F5D1F4F842E912CB12CA12C50
:10050000A50194010E941D07E62FB901CA01EA3036
:10051000F4F4E05DD801EE938D01232B242B252BE1
:1005200079F790E080E0109719F0CD010E94580211
:10053000A1960FB6F894DEBF0FBECDBFDF91CF916D
:100540001F910F91BF90AF909F908F900895E95C9D
:10055000E1CFCF93DF930E945802EC0182E191E05A
:100560000E9458028C0F9D1FDF91CF9108951F921A
:100570000F920FB60F9211242F933F934F935F93D7
:100580006F937F938F939F93AF93BF93EF93FF935B
:1005900089E991E00E941B01FF91EF91BF91AF911A
:1005A0009F918F917F916F915F914F913F912F918B
:1005B0000F900FBE0F901F9018951F920F920FB6BD
:1005C0000F9211242F938F939F93EF93FF93E091BA
:1005D000A901F091AA018081E091AF01F091B001F1
:1005E00082FD1BC090818091B2018F5F8F7320913B
:1005F000B301821741F0E091B201F0E0E756FE4FFF
:10060000958F8093B201FF91EF919F918F912F91E0
:100610000F900FBE0F901F9018958081F4CF1F92FE
:100620000F920FB60F9211242F933F938F939F93A6
:10063000AF93BF938091910190919201A09193010A
:10064000B09194013091900123E0230F2D3758F59C
:100650000196A11DB11D209390018093910190936B
:100660009201A0939301B093940180919501909190
:100670009601A0919701B09198010196A11DB11D1D
:100680008093950190939601A0939701B093980160
:10069000BF91AF919F918F913F912F910F900FBE7E
:1006A0000F901F90189526E8230F0296A11DB11DEB
:1006B000D2CF789484B5826084BD84B5816084BDD6
:1006C00085B5826085BD85B5816085BD80916E00F0
:1006D000816080936E001092810080918100826021
:1006E000809381008091810081608093810080915E
:1006F00080008160809380008091B100846080934D
:10070000B1008091B00081608093B00080917A0048
:10071000846080937A0080917A00826080937A006E
:1007200080917A00816080937A0080917A0080685D
:1007300080937A001092C100E091A901F091AA0182
:1007400082E08083E091A501F091A6011082E09102
:10075000A701F091A8018FEC80831092B101E09184
:10076000AD01F091AE0186E08083E091AB01F091A4
:10077000AC01808180618083E091AB01F091AC019C
:10078000808188608083E091AB01F091AC01808131
:1007900080688083E091AB01F091AC0180818F7D16
:1007A0008083E8EAF0E02491E4E9F0E08491882392
:1007B00099F090E0880F991FFC01E859FF4FA5912F
:1007C000B491FC01E458FF4F859194918FB7F89450
:1007D000EC91E22BEC938FBFE9EAF0E02491E5E99C
:1007E000F0E084918823C1F090E0880F991FFC010C
:1007F000E859FF4FC591D491FC01E458FF4FA591F2
:10080000B4919FB7F8948881E22FE0958E23888376
:100810008C91E823EC939FBF9DE9292E90E0392E1F
:1008200009E810E0C0E0D0E085E191E00E94A90273
:100830000E948C00BC01990F880B990B0E94F60551
:100840006B017C014B015C01AC019B010E9418070C
:10085000882309F455C083E291E00E94580282E1A6
:1008600091E00E94580282E191E00E945802E1EB7F
:10087000F0E08491F101E490F801F490FF2009F494
:10088000DDC081110E94AA01EF2DF0E0EE0FFF1FE5
:10089000EE58FF4FA591B4918C91E82209F4CEC097
:1008A0008FE291E00E94A9020E948C00BC01990F86
:1008B000880B990B0E94F60520E030E046E953E4EE
:1008C0000E94C00587FFB0C080E491E00E94A902A9
:1008D00081E00E94D3018DE591E00E94A9020E946F
:1008E000230282E191E00E945802209709F49CCFF4
:1008F0000E940701882309F497CF0E94000094CF3B
:1009000026013701E89477F82FEF3FEF4FE75FE7D5
:10091000C301B2010E94180781110DC02FEF3FEFF4
:100920004FE75FE7C301B2010E94C00518161CF42F
:1009300087E291E092CF2FEF3FEF4FE75FE4C701EF
:10094000B6010E94A60618161CF48BE291E085CF32
:100950002FEF3FEF4FE75FECC701B6010E94C005E4
:1009600087FDF3CF20E030E0A901C701B6010E9466
:10097000C00587FF0BC06DE289E991E00E943D014F
:1009800046015701B7FAB094B7F8B0942AE037EDB2
:1009900043EA5BE3C501B4010E9454054B015C01CD
:1009A0000E94C5056B017C010E94F4059B01AC010E
:1009B000C501B4010E9453054B015C014AE0C70127
:1009C000B6010E9465026EE289E991E00E943D0154
:1009D00020E030E040E251E4C501B4010E94AB06E2
:1009E0004B015C010E94C5056B01F12CE12C4AE032
:1009F000C701B6010E946502C701B6010E94F40555
:100A00009B01AC01C501B4010E94530520E030E018
:100A100040E251E40E94AB060E94C50590E080E0F0
:100A20004AE00E9465021BCF80E00E94D3018CE661
:100A300091E00E94A9020E94230257CF8CE791E027
:100A40000E94A90280E00E94D301F5CFE9E9F1E01C
:100A50001382128288EE93E0A0E0B0E08483958355
:100A6000A683B78384E091E09183808385EC90E056
:100A70009587848784EC90E09787868780EC90E068
:100A8000918B808B81EC90E0938B828B82EC90E059
:100A9000958B848B86EC90E0978B868B118E128ED3
:100AA000138E148E08955058BB27AA270E946B05F9
:100AB0000C946C060E945E0638F00E94650620F0D9
:100AC00039F49F3F19F426F40C945B060EF4E0957C
:100AD000E7FB0C945506E92F0E947D0658F3BA17E0
:100AE000620773078407950720F079F4A6F50C9444
:100AF0009F060EF4E0950B2EBA2FA02D0B01B90125
:100B000090010C01CA01A0011124FF27591B99F083
:100B1000593F50F4503E68F11A16F040A22F232F8F
:100B2000342F4427585FF3CF469537952795A795DF
:100B3000F0405395C9F77EF41F16BA0B620B730B86
:100B4000840BBAF09150A1F0FF0FBB1F661F771FF7
:100B5000881FC2F70EC0BA0F621F731F841F48F4AC
:100B6000879577956795B795F7959E3F08F0B0CF35
:100B70009395880F08F09927EE0F9795879508951C
:100B80000E94310608F481E008950E94850688F0ED
:100B90009F5798F0B92F9927B751B0F0E1F0660F41
:100BA000771F881F991F1AF0BA95C9F714C0B13082
:100BB00091F00E949F06B1E008950C949F06672F64
:100BC000782F8827B85F39F0B93FCCF386957795B1
:100BD0006795B395D9F73EF490958095709561959A
:100BE0007F4F8F4F9F4F0895E89409C097FB3EF4C5
:100BF00090958095709561957F4F8F4F9F4F99236A
:100C0000A9F0F92F96E9BB279395F69587957795E7
:100C10006795B795F111F8CFFAF4BB0F11F460FFA7
:100C20001BC06F5F7F4F8F4F9F4F16C0882311F0FF
:100C300096E911C0772321F09EE8872F762F05C013
:100C4000662371F096E8862F70E060E02AF09A95AE
:100C5000660F771F881FDAF7880F9695879597F9A3
:100C60000895990F0008550FAA0BE0E8FEEF16163D
:100C70001706E807F907C0F012161306E407F50790
:100C800098F0621B730B840B950B39F40A2661F004
:100C9000232B242B252B21F408950A2609F4A140A7
:100CA000A6958FEF811D811D089597F99F6780E8B4
:100CB00070E060E008959FEF80EC089500240A94AE
:100CC0001616170618060906089500240A94121627
:100CD0001306140605060895092E0394000C11F45A
:100CE000882352F0BB0F40F4BF2B11F460FF04C007
:100CF0006F5F7F4F8F4F9F4F089557FD9058440F60
:100D0000551F59F05F3F71F04795880F97FB991F6A
:100D100061F09F3F79F08795089512161306140627
:100D2000551FF2CF4695F1DF08C0161617061806B4
:100D3000991FF1CF86957105610508940895E8948F
:100D4000BB2766277727CB0197F908950E943106C4
:100D500008F48FEF08950E94BE060C946C060E9462
:100D60005E0638F00E94650620F0952311F00C9481
:100D700055060C945B0611240C94A0060E947D0677
:100D800070F3959FC1F3950F50E0551F629FF001DE
:100D9000729FBB27F00DB11D639FAA27F00DB11DF7
:100DA000AA1F649F6627B00DA11D661F829F222780
:100DB000B00DA11D621F739FB00DA11D621F839F07
:100DC000A00D611D221F749F3327A00D611D231FDD
:100DD000849F600D211D822F762F6A2F11249F572B
:100DE00050409AF0F1F088234AF0EE0FFF1FBB1F2E
:100DF000661F771F881F91505040A9F79E3F5105ED
:100E000080F00C9455060C94A0065F3FE4F3983EE6
:100E1000D4F3869577956795B795F795E7959F5F96
:100E2000C1F7FE2B880F911D9695879597F9089528
:100E30000E943106880B990B0895A1E21A2EAA1B75
:100E4000BB1BFD010DC0AA1FBB1FEE1FFF1FA2177A
:100E5000B307E407F50720F0A21BB30BE40BF50B77
:100E6000661F771F881F991F1A9469F76095709500
:100E7000809590959B01AC01BD01CF010895EE0FC7
:0E0E8000FF1F0590F491E02D0994F894FFCF28
:100E8E00000000003D019D00CA008A01FB00D90050
:100E9E00ED000D0A004C6967687420706F696E74FE
:100EAE00733A006E616E00696E66006F7666004D75
:100EBE006F766D656E742064657465637465640029
:100ECE004C6967687420697320756E646572206D55
:100EDE00696E696D756D206C6976656C0052656C16
:100EEE006179207475726E73206F6E0052656C613D
:100EFE0079207475726E73206F6666004E6F206D6A
:100F0E006F74696F6E206465746563746564000048
:107E0000112484B714BE81FFF0D085E080938100F7
:107E100082E08093C00088E18093C10086E0809377
:107E2000C20080E18093C4008EE0C9D0259A86E02C
:107E300020E33CEF91E0309385002093840096BBD3
:107E4000B09BFECF1D9AA8958150A9F7CC24DD24C4
:107E500088248394B5E0AB2EA1E19A2EF3E0BF2EE7
:107E6000A2D0813461F49FD0082FAFD0023811F036
:107E7000013811F484E001C083E08DD089C08234E0
:107E800011F484E103C0853419F485E0A6D080C0E4
:107E9000853579F488D0E82EFF2485D0082F10E0AE
:107EA000102F00270E291F29000F111F8ED06801E7
:107EB0006FC0863521F484E090D080E0DECF843638
:107EC00009F040C070D06FD0082F6DD080E0C81688
:107ED00080E7D80618F4F601B7BEE895C0E0D1E017
:107EE00062D089930C17E1F7F0E0CF16F0E7DF06D8
:107EF00018F0F601B7BEE89568D007B600FCFDCFD4
:107F0000A601A0E0B1E02C9130E011968C91119780
:107F100090E0982F8827822B932B1296FA010C0160
:107F200087BEE89511244E5F5F4FF1E0A038BF0790
:107F300051F7F601A7BEE89507B600FCFDCF97BE46
:107F4000E89526C08437B1F42ED02DD0F82E2BD052
:107F50003CD0F601EF2C8F010F5F1F4F84911BD097
:107F6000EA94F801C1F70894C11CD11CFA94CF0C13
:107F7000D11C0EC0853739F428D08EE10CD085E9AC
:107F80000AD08FE07ACF813511F488E018D01DD067
:107F900080E101D065CF982F8091C00085FFFCCF94
:107FA0009093C60008958091C00087FFFCCF809118
:107FB000C00084FD01C0A8958091C6000895E0E648
:107FC000F0E098E1908380830895EDDF803219F02E
:107FD00088E0F5DFFFCF84E1DECF1F93182FE3DFCA
:107FE0001150E9F7F2DF1F91089580E0E8DFEE27F6
:047FF000FF270994CA
:027FFE00040479
:0400000300007E007B
:00000001FF
